:020000040800F2
:100000000050002041080008D1070008D707000869
:10001000DD070008E3070008E9070008000000000A
:10002000000000000000000000000000EF070008D2
:10003000FB0700080000000007080008130800087C
:10004000890800088908000889080008890800084C
:10005000890800088908000889080008890800083C
:10006000890800088908000889080008890800082C
:10007000890800088908000889080008890800081C
:10008000890800088908000889080008890800080C
:1000900089080008890800088908000889080008FC
:1000A00089080008890800088908000889080008EC
:1000B0002108000889080008890800088908000844
:1000C00089080008890800088908000889080008CC
:1000D00089080008890800088908000889080008BC
:1000E0008908000889080008890800080000000045
:1000F0000000000000000000000000000000000000
:0C01000000000000000000005FF808F1A3
:10010C0010B5054C237833B9044B13B10448AFF345
:10011C0000800123237010BD0C00002000000000A3
:10012C000427000808B5034B1BB103490348AFF380
:10013C00008008BD0000000010000020042700080B
:10014C004A0011D212F5001211D20DD56FF478734A
:10015C00B3EB62520ED44FEAC12343F0004343EA9F
:10016C00505323FA02F070474FF00000704750EAEA
:10017C00013002D14FF0FF3070474FF00000704754
:10018C0080B483B000AF0346FB71FB79642202FBA1
:10019C0003F2034B9A6300BF0C37BD4680BC70471B
:1001AC00002C014080B584B000AF00F069FB00F07A
:1001BC0027F800F071F900F069F800F021F900F06F
:1001CC009BF80C4801F018FB04210B4801F0B6FB1E
:1001DC004FF00002094BC7E90023D7E90023104672
:1001EC001946FFF7ADFF0346DBB21846FFF7C8FF11
:1001FC00FEE700BFCC0000202C00002000002840AF
:10020C0080B590B000AF07F11803282200211846E2
:10021C0002F06AFA3B1D00221A605A609A60DA609A
:10022C001A610123BB614FF48033FB6100233B62F5
:10023C000123BB6202237B634FF48033BB634FF417
:10024C00E013FB6307F11803184600F025FE034684
:10025C00002B01D000F0A6F90F237B600223BB60BA
:10026C000023FB604FF480633B6100237B613B1DEB
:10027C000221184601F090F80346002B01D000F043
:10028C0091F900BF4037BD4680BD000080B500AF7E
:10029C00174B184A1A60164B4FF482725A60144B63
:1002AC0000229A60124B0022DA60114B00221A6174
:1002BC000F4B00225A610E4B4FF400729A610C4B9B
:1002CC001022DA610A4B00221A62094B00225A6290
:1002DC00074B00229A62064B0A22DA62044801F0AC
:1002EC00B7F90346002B01D000F05CF900BF80BDCC
:1002FC00740000200030014080B592B000AF07F1CF
:10030C00400300221A605A6007F1240300221A608D
:10031C005A609A60DA601A615A619A613B1D202218
:10032C000021184602F0E0F9334B344A1A60324B84
:10033C0047225A60304B00229A602F4B42F20F72C8
:10034C00DA602D4B00221A612B4B00225A612A4B8A
:10035C0000229A61284801F0A1FA0346002B01D033
:10036C0000F020F900233B6400237B6407F1400379
:10037C001946214802F0D2F80346002B01D000F0B8
:10038C0011F960237B620023BB620023FB62002314
:10039C003B6300237B630023BB630023FB6307F1F8
:1003AC00240304221946144801F05AFC0346002B7E
:1003BC0001D000F0F7F800237B600023BB60002322
:1003CC00FB6000233B6100237B614FF40053BB6156
:1003DC0000233B623B1D1946074802F0FDF803461B
:1003EC00002B01D000F0DEF8034800F0B7F900BF95
:1003FC004837BD4680BD00BF2C000020002C0140BA
:10040C0080B586B000AF07F1080300221A605A606D
:10041C009A60DA603B4600221A605A601D4B4FF01E
:10042C0080421A601B4B42F20F725A60194B002229
:10043C009A60184B4722DA60164B00221A61154B52
:10044C0000229A61134801F087F90346002B01D072
:10045C0000F0A8F84FF48053BB6007F1080319466D
:10046C000C4801F0BFFC0346002B01D000F09AF8B9
:10047C0000233B6000237B603B461946054802F095
:10048C004DF80346002B01D000F08CF800BF183754
:10049C00BD4680BDCC00002080B588B000AF07F110
:1004AC00100300221A605A609A60DA60344B9B6920
:1004BC00334A43F010039361314B9B6903F01003F3
:1004CC00FB60FB682E4B9B692D4A43F02003936124
:1004DC002B4B9B6903F02003BB60BB68284B9B69CB
:1004EC00274A43F004039361254B9B6903F00403F3
:1004FC007B607B68224B9B69214A43F00803936124
:10050C001F4B9B6903F008033B603B6800224FF4D0
:10051C0000511C4800F0A8FC012210211A4800F0E0
:10052C00A3FC4FF400533B6101237B610023BB61AF
:10053C000223FB6107F110031946124800F010FB6F
:10054C0010233B6101237B610023BB610123FB6111
:10055C0007F1100319460C4800F002FB4FF400534E
:10056C003B6100237B610223BB6107F11003194639
:10057C00064800F0F5FA00BF2037BD4680BD00BF2D
:10058C00001002400010014000080140000C014026
:10059C0080B582B000AF786000F00AF800BF083771
:1005AC00BD4680BD80B400AF72B600BFFEE7000050
:1005BC0080B400AF084B1B88013B9AB2064B1A80E3
:1005CC00054B1B88002B02D1044B01221A7000BF73
:1005DC00BD4680BC704700BF280000202A000020C8
:1005EC0080B485B000AF154B9B69144A43F00103EE
:1005FC009361124B9B6903F00103BB60BB680F4B0B
:10060C00DB690E4A43F08053D3610C4BDB6903F07A
:10061C0080537B607B680A4B5B68FB60FB6823F054
:10062C00E063FB60FB6843F00073FB60044AFB680B
:10063C00536000BF1437BD4680BC704700100240A9
:10064C000000014080B588B000AF786007F110035E
:10065C0000221A605A609A60DA607B681B681B4A39
:10066C0093422FD11A4B9B69194A43F480539361DF
:10067C00174B9B6903F48053FB60FB68144B9B691D
:10068C00134A43F004039361114B9B6903F0040379
:10069C00BB60BB68A0233B6102237B610323FB612E
:1006AC0007F1100319460B4800F05AFA40233B613E
:1006BC0000237B610023BB6107F110031946054839
:1006CC0000F04EFA00BF2037BD4680BD003001401F
:1006DC00001002400008014080B485B000AF786083
:1006EC007B681B68094A93420BD1094B9B69084AEA
:1006FC0043F400639361064B9B6903F40063FB6056
:10070C00FB6800BF1437BD4680BC7047002C01400D
:10071C000010024080B584B000AF78607B681B6825
:10072C00B3F1804F13D10C4BDB690B4A43F001033F
:10073C00D361094BDB6903F00103FB60FB6800220A
:10074C0000211C2000F0D5F91C2000F0EEF900BFB0
:10075C001037BD4680BD00BF0010024080B588B088
:10076C0000AF786007F1100300221A605A609A609B
:10077C00DA607B681B68104A934218D10F4B9B6957
:10078C000E4A43F0040393610C4B9B6903F0040382
:10079C00FB60FB684FF400733B6102237B61022317
:1007AC00FB6107F110031946054800F0D9F900BFA9
:1007BC002037BD4680BD00BF002C01400010024018
:1007CC000008014080B400AFFEE780B400AFFEE744
:1007DC0080B400AFFEE780B400AFFEE780B400AF9A
:1007EC00FEE780B400AF00BFBD4680BC704780B44C
:1007FC0000AF00BFBD4680BC704780B400AF00BFE7
:10080C00BD4680BC704780B500AF00F07FF800BFDC
:10081C0080BD000080B500AF024801F031F900BF87
:10082C0080BD00BFCC00002080B400AF00BFBD462F
:10083C0080BC7047FFF7F8FF0B480C490C4A0023AB
:10084C0002E0D458C4500433C4188C42F9D3094A7A
:10085C00094C002301E013600432A242FBD301F0E7
:10086C001FFFFFF79FFC7047000000200C000020CA
:10087C00482700080C00002018010020FEE70000AB
:10088C0080B500AF084B1B68074A43F01003136098
:10089C00032000F023F90F2000F008F8FFF7A0FE6A
:1008AC000023184680BD00BF0020024080B582B0F6
:1008BC0000AF7860124B1A68124B1B7819464FF434
:1008CC007A73B3FBF1F3B2FBF3F3184600F03BF988
:1008DC000346002B01D001230EE07B680F2B0AD8B6
:1008EC00002279684FF0FF3000F003F9064A7B686C
:1008FC001360002300E0012318460837BD4680BD75
:10090C0000000020080000200400002080B400AF8C
:10091C00054B1B781A46054B1B681344034A13609E
:10092C0000BFBD4680BC70470800002014010020A9
:10093C0080B400AF024B1B681846BD4680BC7047A4
:10094C001401002080B485B000AF78607B6803F0A0
:10095C000703FB600C4BDB68BB60BA684FF6FF0308
:10096C001340BB60FB681A02BB68134343F0BF63C0
:10097C0043F40033BB60044ABB68D36000BF143738
:10098C00BD4680BC704700BF00ED00E080B400AFF6
:10099C00044BDB681B0A03F007031846BD4680BCFA
:1009AC00704700BF00ED00E080B483B000AF034699
:1009BC00FB7197F90730002B0BDBFB7903F01F025F
:1009CC00064997F907305B09012000FA02F241F859
:1009DC00232000BF0C37BD4680BC704700E100E00F
:1009EC0080B483B000AF03463960FB7197F90730D0
:1009FC00002B0ADB3B68DAB20C4997F9073012017D
:100A0C00D2B20B4483F800230AE03B68DAB20849FF
:100A1C00FB7903F00F03043B1201D2B20B441A769C
:100A2C0000BF0C37BD4680BC704700BF00E100E042
:100A3C0000ED00E080B489B000AFF860B9607A6076
:100A4C00FB6803F00703FB61FB69C3F10703042B8D
:100A5C0028BF0423BB61FB690433062B02D9FB6955
:100A6C00033B00E000237B614FF0FF32BB6902FACD
:100A7C0003F3DA43BB681A407B699A404FF0FF31AD
:100A8C007B6901FA03F3D9437B680B401343184687
:100A9C002437BD4680BC704780B582B000AF78600B
:100AAC007B68013BB3F1807F01D301230FE00A4A3D
:100ABC007B68013B53600F214FF0FF30FFF790FF35
:100ACC00054B00229A60044B07221A60002318463B
:100ADC000837BD4680BD00BF10E000E080B582B095
:100AEC0000AF78607868FFF72DFF00BF0837BD4670
:100AFC0080BD80B586B000AF0346B9607A60FB73E9
:100B0C0000237B61FFF742FF78617A68B9687869E6
:100B1C00FFF790FF024697F90F3011461846FFF782
:100B2C005FFF00BF1837BD4680BD80B582B000AFF7
:100B3C000346FB7197F907301846FFF735FF00BFE6
:100B4C000837BD4680BD80B582B000AF786078684C
:100B5C00FFF7A2FF034618460837BD4680BD0000CC
:100B6C0080B48BB000AF7860396000237B620023C7
:100B7C003B6269E101227B6A02FA03F3FB613B6889
:100B8C001B68FA691340BB61BA69FB699A4240F071
:100B9C0058813B685B689A4A93425ED0984A93426C
:100BAC0075D8984A934258D0964A93426FD8964A31
:100BBC00934252D0944A934269D8944A93424CD06F
:100BCC00924A934263D8924A934246D0904A9342B7
:100BDC005DD8122B2AD8122B59D801A252F823F027
:100BEC00670C0008410C0008530C0008950C000819
:100BFC009B0C00089B0C00089B0C00089B0C00082D
:100C0C009B0C00089B0C00089B0C00089B0C00081C
:100C1C009B0C00089B0C00089B0C00089B0C00080C
:100C2C009B0C0008490C00085D0C0008794A9342A3
:100C3C0013D02CE03B68DB683B6229E03B68DB6847
:100C4C0004333B6224E03B68DB6808333B621FE003
:100C5C003B68DB680C333B621AE03B689B68002BFB
:100C6C0002D104233B6213E03B689B68012B05D146
:100C7C0008233B627B68FA691A6109E008233B622E
:100C8C007B68FA695A6103E000233B6200E000BF15
:100C9C00BB69FF2B01D87B6801E07B6804337B6167
:100CAC00BB69FF2B02D87B6A9B0002E07B6A083B86
:100CBC009B003B617B691A680F213B6901FA03F3C6
:100CCC00DB431A40396A3B6901FA03F31A437B6927
:100CDC001A603B685B6803F08053002B00F0B18016
:100CEC004D4B9B694C4A43F0010393614A4B9B6902
:100CFC0003F00103BB60BB68484A7B6A9B08023364
:100D0C0052F82330FB607B6A03F003039B000F2235
:100D1C0002FA03F3DB43FA681340FB607B68404A3A
:100D2C00934213D07B683F4A93420DD07B683E4A76
:100D3C00934207D07B683D4A934201D1032306E0DE
:100D4C00042304E0022302E0012300E000237A6A7A
:100D5C0002F0030292009340FA681343FB602F49A0
:100D6C007B6A9B080233FA6841F823203B685B6876
:100D7C0003F48013002B06D02D4B9A682C49BB69C9
:100D8C0013438B6006E02A4B9A68BB69DB43284906
:100D9C0013408B603B685B6803F40013002B06D098
:100DAC00234BDA682249BB691343CB6006E0204B26
:100DBC00DA68BB69DB431E491340CB603B685B6858
:100DCC0003F40033002B06D0194B5A681849BB6941
:100DDC0013434B6006E0164B5A68BB69DB4314495E
:100DEC0013404B603B685B6803F48033002B21D0CD
:100DFC000F4B1A680E49BB6913430B6021E000BF0F
:100E0C0000003210000031100000221000002110F0
:100E1C0000001210000011100010024000000140F0
:100E2C0000080140000C014000100140001401407A
:100E3C00000401400B4B1A68BB69DB4309491340A2
:100E4C000B607B6A01337B623B681A687B6A22FA0F
:100E5C0003F3002B7FF48EAE00BF00BF2C37BD46D2
:100E6C0080BC70470004014080B483B000AF786050
:100E7C000B467B8013467B707B78002B03D07A88E3
:100E8C007B681A6103E07B881A047B681A6100BFD7
:100E9C000C37BD4680BC704780B586B000AF78601B
:100EAC007B68002B01D101236CE27B681B6803F08B
:100EBC000103002B00F08780924B5B6803F00C035E
:100ECC00042B0CD08F4B5B6803F00C03082B12D156
:100EDC008C4B5B6803F48033B3F5803F0BD1894BAB
:100EEC001B6803F40033002B6CD07B685B68002B11
:100EFC0068D1012346E27B685B68B3F5803F06D17D
:100F0C00804B1B687F4A43F4803313602EE07B6870
:100F1C005B68002B0CD17B4B1B687A4A23F4803323
:100F2C001360784B1B68774A23F4802313601DE011
:100F3C007B685B68B3F5A02F0CD1724B1B68714AB0
:100F4C0043F4802313606F4B1B686E4A43F4803369
:100F5C0013600BE06B4B1B686A4A23F480331360FD
:100F6C00684B1B68674A23F4802313607B685B68BB
:100F7C00002B13D0FFF7DCFC386108E0FFF7D8FC3E
:100F8C0002463B69D31A642B01D90323FAE15D4B6A
:100F9C001B6803F40033002BF0D014E0FFF7C8FCFF
:100FAC00386108E0FFF7C4FC02463B69D31A642B96
:100FBC0001D90323E6E1534B1B6803F40033002BE8
:100FCC00F0D100E000BF7B681B6803F00203002B2C
:100FDC0063D04C4B5B6803F00C03002B0BD0494BDC
:100FEC005B6803F00C03082B1CD1464B5B6803F4C5
:100FFC008033002B16D1434B1B6803F00203002BEC
:10100C0005D07B681B69012B01D00123BAE13D4B54
:10101C001B6823F0F8027B685B69DB0039491343DA
:10102C000B603AE07B681B69002B20D0364B012209
:10103C001A60FFF77DFC386108E0FFF779FC024687
:10104C003B69D31A022B01D903239BE12D4B1B685F
:10105C0003F00203002BF0D02A4B1B6823F0F8029C
:10106C007B685B69DB00274913430B6015E0264B5B
:10107C0000221A60FFF75CFC386108E0FFF758FCAF
:10108C0002463B69D31A022B01D903237AE11D4B8B
:10109C001B6803F00203002BF0D17B681B6803F084
:1010AC000803002B3AD07B689B69002B19D0174B97
:1010BC0001221A60FFF73CFC386108E0FFF738FCAE
:1010CC0002463B69D31A022B01D903235AE10D4B7B
:1010DC005B6A03F00203002BF0D0012000F09AFAB7
:1010EC001CE00A4B00221A60FFF722FC38610FE06B
:1010FC00FFF71EFC02463B69D31A022B08D90323C7
:10110C0040E100BF00100240000042428004424215
:10111C009E4B5B6A03F00203002BE9D17B681B68D2
:10112C0003F00403002B00F0A6800023FB75974B03
:10113C00DB6903F08053002B0DD1944BDB69934A90
:10114C0043F08053D361914BDB6903F08053BB6058
:10115C00BB680123FB758E4B1B6803F48073002B5B
:10116C0018D18B4B1B688A4A43F480731360FFF7CA
:10117C00DFFB386108E0FFF7DBFB02463B69D31A63
:10118C00642B01D90323FDE0814B1B6803F48073AE
:10119C00002BF0D07B68DB68012B06D17B4B1B6AE4
:1011AC007A4A43F0010313622DE07B68DB68002B65
:1011BC000CD1764B1B6A754A23F001031362734BF7
:1011CC001B6A724A23F0040313621CE07B68DB6821
:1011DC00052B0CD16D4B1B6A6C4A43F00403136254
:1011EC006A4B1B6A694A43F0010313620BE0674BBD
:1011FC001B6A664A23F001031362644B1B6A634A41
:10120C0023F0040313627B68DB68002B15D0FFF717
:10121C008FFB38610AE0FFF78BFB02463B69D31A60
:10122C0041F28832934201D90323ABE0574B1B6A3E
:10123C0003F00203002BEED014E0FFF779FB3861CA
:10124C000AE0FFF775FB02463B69D31A41F288327C
:10125C00934201D9032395E04C4B1B6A03F0020324
:10126C00002BEED1FB7D012B05D1484BDB69474AA6
:10127C0023F08053D3617B68DB69002B00F0818005
:10128C00424B5B6803F00C03082B61D07B68DB6975
:10129C00022B46D13F4B00221A60FFF749FB386105
:1012AC0008E0FFF745FB02463B69D31A022B01D934
:1012BC00032367E0354B1B6803F00073002BF0D160
:1012CC007B681B6AB3F5803F08D1304B5B6823F415
:1012DC0000327B689B682D4913434B602B4B5B683A
:1012EC0023F474127B68196A7B685B6A0B43274989
:1012FC0013434B60274B01221A60FFF719FB38612F
:10130C0008E0FFF715FB02463B69D31A022B01D903
:10131C00032337E01D4B1B6803F00073002BF0D048
:10132C002FE01C4B00221A60FFF702FB386108E02B
:10133C00FFF7FEFA02463B69D31A022B01D90323AD
:10134C0020E0124B1B6803F00073002BF0D118E067
:10135C007B68DB69012B01D1012313E00B4B5B682C
:10136C00FB60FB6803F480327B681B6A9A4206D1EF
:10137C00FB6803F470127B685B6A9A4201D001230C
:10138C0000E0002318461837BD4680BD001002400F
:10139C00007000406000424280B584B000AF7860BD
:1013AC0039607B68002B01D10123D0E06A4B1B68AC
:1013BC0003F007033A689A4210D9674B1B6823F075
:1013CC00070265493B6813430B60634B1B6803F0D2
:1013DC0007033A689A4201D00123B8E07B681B6886
:1013EC0003F00203002B20D07B681B6803F004037E
:1013FC00002B05D0594B5B68584A43F4E0635360AB
:10140C007B681B6803F00803002B05D0534B5B680B
:10141C00524A43F460535360504B5B6823F0F00224
:10142C007B689B684D4913434B607B681B6803F0DA
:10143C000103002B40D07B685B68012B07D1474B25
:10144C001B6803F40033002B15D101237FE07B686C
:10145C005B68022B07D1414B1B6803F00073002B18
:10146C0009D1012373E03D4B1B6803F00203002BF1
:10147C0001D101236BE0394B5B6823F003027B68DD
:10148C005B68364913434B60FFF752FAF8600AE089
:10149C00FFF74EFA0246FB68D31A41F288329342A8
:1014AC0001D9032353E02D4B5B6803F00C027B68DE
:1014BC005B689B009A42EBD1274B1B6803F0070338
:1014CC003A689A4210D2244B1B6823F00702224937
:1014DC003B6813430B60204B1B6803F007033A680F
:1014EC009A4201D0012332E07B681B6803F00403AD
:1014FC00002B08D0194B5B6823F4E0627B68DB6837
:10150C00164913434B607B681B6803F00803002BE0
:10151C0009D0124B5B6823F460527B681B69DB00BB
:10152C000E4913434B6000F021F802460B4B5B68ED
:10153C001B0903F00F030A49CB5C22FA03F3094A97
:10154C001360094B1B681846FFF7B0F900231846C7
:10155C001037BD4680BD00BF002002400010024085
:10156C001C270008000000200400002080B487B075
:10157C0000AF0023FB600023BB6000237B610023D2
:10158C007B6000233B611E4B5B68FB60FB6803F0D8
:10159C000C03042B02D0082B03D027E0194B3B6122
:1015AC0027E0FB689B0C03F00F03174AD35C7B60AE
:1015BC00FB6803F48033002B10D0114B5B685B0C81
:1015CC0003F00103114AD35CBB607B680D4A02FB3C
:1015DC0003F2BB68B2FBF3F37B6104E07B680C4A5B
:1015EC0002FB03F37B617B693B6102E0054B3B61D2
:1015FC0000BF3B6918461C37BD4680BC704700BF16
:10160C000010024000127A002C2700083C2700082A
:10161C0000093D0080B485B000AF78600A4B1B68B0
:10162C000A4AA2FB03235B0A7A6802FB03F3FB6002
:10163C0000BFFB685A1EFA60002BF9D100BF00BF37
:10164C001437BD4680BC704700000020D34D62109B
:10165C0080B582B000AF78607B68002B01D101238C
:10166C0076E07B685B6A002B08D17B685B68B3F51E
:10167C00827F09D07B680022DA6105E07B6800225A
:10168C001A617B6800225A617B6800229A627B682F
:10169C0093F85130DBB2002B06D17B68002283F823
:1016AC0050207868FEF7CEFF7B68022283F8512029
:1016BC007B681B681A687B681B6822F040021A6002
:1016CC007B685B6803F482727B689B6803F4044359
:1016DC001A437B68DB6803F400631A437B681B695D
:1016EC0003F002031A437B685B6903F001031A439E
:1016FC007B689B6903F400731A437B68DB6903F016
:10170C0038031A437B681B6A03F0800342EA030127
:10171C007B689B6A03F400527B681B680A431A605F
:10172C007B689B691A0C7B681B6802F004025A6088
:10173C007B681B68DA697B681B6822F40062DA61DB
:10174C007B6800225A657B68012283F851200023B4
:10175C0018460837BD4680BD80B582B000AF7860B2
:10176C007B68002B01D1012341E07B6893F83D306D
:10177C00DBB2002B06D17B68002283F83C20786812
:10178C00FEF7C8FF7B68022283F83D207B681A684D
:10179C007B6804331946104600F010FC7B6801226C
:1017AC0083F846207B68012283F83E207B68012267
:1017BC0083F83F207B68012283F840207B6801225C
:1017CC0083F841207B68012283F842207B68012248
:1017DC0083F843207B68012283F844207B68012234
:1017EC0083F845207B68012283F83D2000231846AE
:1017FC000837BD4680BD000080B485B000AF78606E
:10180C007B6893F83D30DBB2012B01D001233AE029
:10181C007B68022283F83D207B681B68DA687B6852
:10182C001B6842F00102DA607B681B68184A93421D
:10183C000ED07B681B68B3F1804F09D07B681B68A6
:10184C00144A934204D07B681B68134A934211D10B
:10185C007B681B689B6803F00703FB60FB68062B27
:10186C0010D07B681B681A687B681B6842F0010209
:10187C001A6007E07B681B681A687B681B6842F07B
:10188C0001021A60002318461437BD4680BC70470D
:10189C00002C0140000400400008004080B582B0DC
:1018AC0000AF78607B68002B01D1012341E07B689D
:1018BC0093F83D30DBB2002B06D17B68002283F815
:1018CC003C207868FEF708FF7B68022283F83D20F5
:1018DC007B681A687B6804331946104600F06EFB6F
:1018EC007B68012283F846207B68012283F83E2026
:1018FC007B68012283F83F207B68012283F840201B
:10190C007B68012283F841207B68012283F8422006
:10191C007B68012283F843207B68012283F84420F2
:10192C007B68012283F845207B68012283F83D20E7
:10193C00002318460837BD4680BD000080B584B032
:10194C0000AF786039603B68002B09D17B6893F855
:10195C003E30DBB2012B14BF01230023DBB222E0AB
:10196C003B68042B09D17B6893F83F30DBB2012B29
:10197C0014BF01230023DBB215E03B68082B09D10F
:10198C007B6893F84030DBB2012B14BF012300239A
:10199C00DBB208E07B6893F84130DBB2012B14BF5B
:1019AC0001230023DBB2002B01D001235EE03B6856
:1019BC00002B04D17B68022283F83E2013E03B68A5
:1019CC00042B04D17B68022283F83F200BE03B6898
:1019DC00082B04D17B68022283F8402003E07B684B
:1019EC00022283F841207B681B6801223968184663
:1019FC0000F070FD7B681B681E4A934207D17B6820
:101A0C001B685A6C7B681B6842F400425A647B6802
:101A1C001B68184A93420ED07B681B68B3F1804F49
:101A2C0009D07B681B68144A934204D07B681B68FE
:101A3C00124A934211D17B681B689B6803F0070321
:101A4C00FB60FB68062B10D07B681B681A687B68F0
:101A5C001B6842F001021A6007E07B681B681A6879
:101A6C007B681B6842F001021A600023184610378D
:101A7C00BD4680BD002C0140000400400008004021
:101A8C0080B584B000AF78607B681B68DB68FB6056
:101A9C007B681B681B69BB60BB6803F00203002BEF
:101AAC0020D0FB6803F00203002B1BD07B681B6863
:101ABC006FF002021A617B6801221A777B681B683F
:101ACC009B6903F00303002B03D0786800F05AFAEB
:101ADC0005E0786800F04DFA786800F05CFA7B68F5
:101AEC0000221A77BB6803F00403002B20D0FB689C
:101AFC0003F00403002B1BD07B681B686FF00402FF
:101B0C001A617B6802221A777B681B689B6903F455
:101B1C004073002B03D0786800F034FA05E0786845
:101B2C0000F027FA786800F036FA7B6800221A7702
:101B3C00BB6803F00803002B20D0FB6803F00803FC
:101B4C00002B1BD07B681B686FF008021A617B6846
:101B5C0004221A777B681B68DB6903F00303002BF4
:101B6C0003D0786800F00EFA05E0786800F001FA0E
:101B7C00786800F010FA7B6800221A77BB6803F0D3
:101B8C001003002B20D0FB6803F01003002B1BD09C
:101B9C007B681B686FF010021A617B6808221A7749
:101BAC007B681B68DB6903F44073002B03D07868F7
:101BBC0000F0E8F905E0786800F0DBF9786800F0EF
:101BCC00EAF97B6800221A77BB6803F00103002B4B
:101BDC000CD0FB6803F00103002B07D07B681B685B
:101BEC006FF001021A617868FEF7D2FCBB6803F053
:101BFC008003002B0CD0FB6803F08003002B07D074
:101C0C007B681B686FF080021A61786800F03EFDFB
:101C1C00BB6803F04003002B0CD0FB6803F04003BF
:101C2C00002B07D07B681B686FF040021A61786844
:101C3C0000F0BAF9BB6803F02003002B0CD0FB6852
:101C4C0003F02003002B07D07B681B686FF0200289
:101C5C001A61786800F011FD00BF1037BD4680BDD9
:101C6C0080B586B000AFF860B9607A600023FB7570
:101C7C00FB6893F83C30012B01D10223AEE0FB68EA
:101C8C00012283F83C207B680C2B00F29F8001A280
:101C9C0052F823F0D51C0008D91D0008D91D0008E6
:101CAC00D91D0008151D0008D91D0008D91D0008F4
:101CBC00D91D0008571D0008D91D0008D91D0008A2
:101CCC00D91D0008971D0008FB681B68B9681846E9
:101CDC0000F0E2F9FB681B689A69FB681B6842F02C
:101CEC0008029A61FB681B689A69FB681B6822F002
:101CFC0004029A61FB681B689969BB681A69FB68E6
:101D0C001B680A439A6164E0FB681B68B968184653
:101D1C0000F028FAFB681B689A69FB681B6842F4A0
:101D2C0000629A61FB681B689A69FB681B6822F465
:101D3C0080629A61FB681B689969BB681B691A020F
:101D4C00FB681B680A439A6143E0FB681B68B9682F
:101D5C00184600F071FAFB681B68DA69FB681B68AF
:101D6C0042F00802DA61FB681B68DA69FB681B68E1
:101D7C0022F00402DA61FB681B68D969BB681A6936
:101D8C00FB681B680A43DA6123E0FB681B68B968CF
:101D9C00184600F0BBFAFB681B68DA69FB681B6825
:101DAC0042F40062DA61FB681B68DA69FB681B6845
:101DBC0022F48062DA61FB681B68D969BB681B6915
:101DCC001A02FB681B680A43DA6102E00123FB7507
:101DDC0000BFFB68002283F83C20FB7D18461837B7
:101DEC00BD4680BD80B584B000AF786039600023FB
:101DFC00FB737B6893F83C30012B01D10223B4E0D8
:101E0C007B68012283F83C207B68022283F83D200A
:101E1C007B681B689B68BB60BB6823F07703BB6067
:101E2C00BB6823F47F43BB607B681B68BA689A600D
:101E3C003B681B68B3F5005F3ED0B3F5005F00F262
:101E4C008780B3F5805F00F08680B3F5805F7FD824
:101E5C00702B1AD0702B7BD8602B50D0602B77D87E
:101E6C00502B3CD0502B73D8402B58D0402B6FD8D4
:101E7C00302B64D0302B6BD8202B60D0202B67D824
:101E8C00002B5CD0102B5AD062E07B6818683B6842
:101E9C0099683B685A683B68DB6800F0FCFA7B6821
:101EAC001B689B68BB60BB6843F07703BB607B68B7
:101EBC001B68BA689A604FE07B6818683B68996841
:101ECC003B685A683B68DB6800F0E5FA7B681B6886
:101EDC009A687B681B6842F480429A603CE07B689D
:101EEC0018683B6859683B68DB681A4600F05CFA76
:101EFC007B681B685021184600F0B3FA2CE07B6815
:101F0C0018683B6859683B68DB681A4600F07AFA37
:101F1C007B681B686021184600F0A3FA1CE07B6804
:101F2C0018683B6859683B68DB681A4600F03CFA55
:101F3C007B681B684021184600F093FA0CE07B6824
:101F4C001A683B681B681946104600F08AFA03E0D1
:101F5C000123FB7300E000BF7B68012283F83D2066
:101F6C007B68002283F83C20FB7B18461037BD466B
:101F7C0080BD80B483B000AF786000BF0C37BD4625
:101F8C0080BC704780B483B000AF786000BF0C3762
:101F9C00BD4680BC704780B483B000AF786000BF92
:101FAC000C37BD4680BC704780B483B000AF7860FE
:101FBC0000BF0C37BD4680BC7047000080B485B0B4
:101FCC0000AF786039607B681B68FB607B682F4AC8
:101FDC0093420BD07B68B3F1804F07D07B682C4ABF
:101FEC00934203D07B682B4A934208D1FB6823F0C1
:101FFC007003FB603B685B68FA681343FB607B68AB
:10200C00224A93420BD07B68B3F1804F07D07B6898
:10201C001F4A934203D07B681E4A934208D1FB6847
:10202C0023F44073FB603B68DB68FA681343FB6086
:10203C00FB6823F080023B685B691343FB607B68A1
:10204C00FA681A603B689A687B68DA623B681A68BF
:10205C007B689A627B680D4A934203D13B681A698C
:10206C007B681A637B6801225A617B681B6903F0E9
:10207C000103002B05D07B681B6923F001027B68F0
:10208C001A6100BF1437BD4680BC7047002C01405C
:10209C00000400400008004080B487B000AF7860B6
:1020AC0039607B681B6A7B617B681B6A23F00102C9
:1020BC007B681A627B685B683B617B689B69FB6031
:1020CC00FB6823F07003FB60FB6823F00303FB60E9
:1020DC003B681B68FA681343FB607B6923F00203BF
:1020EC007B613B689B687A6913437B617B681C4A04
:1020FC0093420CD17B6923F008037B613B68DB685E
:10210C007A6913437B617B6923F004037B617B68F1
:10211C00134A934211D13B6923F480733B613B69B1
:10212C0023F400733B613B685B693A6913433B6181
:10213C003B689B693A6913433B617B683A695A6017
:10214C007B68FA689A613B685A687B685A637B685B
:10215C007A691A6200BF1C37BD4680BC704700BF4D
:10216C00002C014080B487B000AF786039607B6888
:10217C001B6A7B617B681B6A23F010027B681A6206
:10218C007B685B683B617B689B69FB60FB6823F445
:10219C00E043FB60FB6823F44073FB603B681B6807
:1021AC001B02FA681343FB607B6923F020037B61FD
:1021BC003B689B681B017A6913437B617B681D4AF2
:1021CC0093420DD17B6923F080037B613B68DB6814
:1021DC001B017A6913437B617B6923F040037B61AC
:1021EC007B68144A934213D13B6923F480633B61AF
:1021FC003B6923F400633B613B685B699B003A6974
:10220C0013433B613B689B699B003A6913433B61F9
:10221C007B683A695A607B68FA689A613B685A68CD
:10222C007B689A637B687A691A6200BF1C37BD466B
:10223C0080BC7047002C014080B487B000AF786040
:10224C0039607B681B6A7B617B681B6A23F4807234
:10225C007B681A627B685B683B617B68DB69FB604F
:10226C00FB6823F07003FB60FB6823F00303FB6047
:10227C003B681B68FA681343FB607B6923F40073AB
:10228C007B613B689B681B027A6913437B617B68AB
:10229C001D4A93420DD17B6923F400637B613B683B
:1022AC00DB681B027A6913437B617B6923F48063CF
:1022BC007B617B68144A934213D13B6923F48053AE
:1022CC003B613B6923F400533B613B685B691B0139
:1022DC003A6913433B613B689B691B013A691343A1
:1022EC003B617B683A695A607B68FA68DA613B68E3
:1022FC005A687B68DA637B687A691A6200BF1C379C
:10230C00BD4680BC704700BF002C014080B487B034
:10231C0000AF786039607B681B6A3B617B681B6A25
:10232C0023F480527B681A627B685B687B617B68F4
:10233C00DB69FB60FB6823F4E043FB60FB6823F480
:10234C004073FB603B681B681B02FA681343FB601D
:10235C003B6923F400533B613B689B681B033A6960
:10236C0013433B617B680F4A934209D17B6923F489
:10237C0080437B613B685B699B017A6913437B619A
:10238C007B687A695A607B68FA68DA613B685A68DC
:10239C007B681A647B683A691A6200BF1C37BD46B9
:1023AC0080BC7047002C014080B487B000AFF8604F
:1023BC00B9607A60FB681B6A7B61FB681B6A23F05F
:1023CC000102FB681A62FB689B693B613B6923F065
:1023DC00F0033B617B681B013A6913433B617B69EA
:1023EC0023F00A037B617A69BB6813437B61FB684A
:1023FC003A699A61FB687A691A6200BF1C37BD465C
:10240C0080BC704780B487B000AFF860B9607A6068
:10241C00FB681B6A7B61FB681B6A23F01002FB687C
:10242C001A62FB689B693B613B6923F470433B6117
:10243C007B681B033A6913433B617B6923F0A00360
:10244C007B61BB681B017A6913437B61FB683A694A
:10245C009A61FB687A691A6200BF1C37BD4680BC62
:10246C00704780B485B000AF786039607B689B683A
:10247C00FB60FB6823F07003FB603A68FB68134356
:10248C0043F00703FB607B68FA689A6000BF14375F
:10249C00BD4680BC704780B487B000AFF860B960AF
:1024AC007A603B60FB689B687B617B6923F47F43AC
:1024BC007B613B681A027B681A43BB6813437A69D9
:1024CC0013437B61FB687A699A6000BF1C37BD4679
:1024DC0080BC704780B487B000AFF860B9607A6098
:1024EC00BB6803F01F03012202FA03F37B61FB6854
:1024FC001A6A7B69DB431A40FB681A62FB681A6A2A
:10250C00BB6803F01F03796801FA03F31A43FB68F5
:10251C001A6200BF1C37BD4680BC704780B485B0C2
:10252C0000AF786039607B6893F83C30012B01D1A7
:10253C00022346E07B68012283F83C207B68022260
:10254C0083F83D207B681B685B68FB607B681B68BD
:10255C009B68BB60FB6823F07003FB603B681B68E7
:10256C00FA681343FB607B681B68FA685A607B68E7
:10257C001B68164A93420ED07B681B68B3F1804FE0
:10258C0009D07B681B68124A934204D07B681B6895
:10259C00104A93420CD1BB6823F08003BB603B68AC
:1025AC005B68BA681343BB607B681B68BA689A6047
:1025BC007B68012283F83D207B68002283F83C2055
:1025CC00002318461437BD4680BC7047002C0140D0
:1025DC00000400400008004080B485B000AF786073
:1025EC0039600023FB607B6893F83C30012B01D1F0
:1025FC0002233DE07B68012283F83C20FB6823F03A
:10260C00FF023B68DB681343FB60FB6823F44072FA
:10261C003B689B681343FB60FB6823F480623B6858
:10262C005B681343FB60FB6823F400623B681B6828
:10263C001343FB60FB6823F480523B681B69134314
:10264C00FB60FB6823F400523B685B691343FB603F
:10265C00FB6823F480423B68DB691343FB607B68B7
:10266C001B68FA685A647B68002283F83C200023BC
:10267C0018461437BD4680BC704780B483B000AF99
:10268C00786000BF0C37BD4680BC704780B483B007
:10269C0000AF786000BF0C37BD4680BC70470000AF
:1026AC0070B500260C4D0D4C641BA410A64209D12C
:1026BC0000F022F800260A4D0A4C641BA410A64216
:1026CC0005D170BD55F8043B98470136EEE755F837
:1026DC00043B98470136F2E74027000840270008E2
:1026EC00402700084427000803460244934200D1C7
:1026FC00704703F8011BF9E7F8B500BFF8BC08BC3C
:10270C009E467047F8B500BFF8BC08BC9E467047A3
:10271C000000000000000000010203040607080985
:10272C0002030405060708090A0B0C0D0E0F101006
:04273C000102000096
:04274000310100085B
:042744000D0100087B
:0C27480000127A001000000001000000E8
:0400000508000841A6
:00000001FF
